:10000000EEC0000008C1000006C1000004C10000ED
:1000100002C1000000C10000FEC00000FCC00000E2
:10002000FAC00000F8C00000F6C0000031C60000B1
:10003000D6C60000F0C00000EEC00000ECC000001A
:10004000EAC00000E8C00000E6C00000E4C0000014
:10005000E2C00000E0C00000DEC0000076C3000087
:10006000DAC00000D8C00000D6C00000D4C0000034
:10007000D2C000004B076D0757086D075708AF0740
:10008000CC0757081F08310814034D0049004400ED
:10009000490020004C007500660061000000180354
:1000A000410072006400750069006E006F0020005E
:1000B00055006E006F00000024036B007500770090
:1000C000610074006100790040006E006900660004
:1000D000740079002E0063006F006D000000320391
:1000E000410072006400750069006E006F0020001E
:1000F00028007700770077002E006100720064000E
:10010000750069006E006F002E0063006300290017
:1001100000000403090409026500020100C032095D
:100120000400000001010000092401000109000190
:10013000010904010002010300000724010001413C
:100140000006240201010006240202020009240321
:100150000103010201000924030204010101000955
:10016000050102400000000005250101010905828A
:10017000024000000000052501010309023E0002C3
:100180000100C03209040000010202010005240040
:100190000110042402060524060001070582030855
:1001A00000FF09040100020A0000000705040240E4
:1001B0000001070583024000011201100100000048
:1001C00008EB0348200000010200011201100102A7
:1001D0000000084123010001000102DC010011249C
:1001E0001FBECFEFD2E0DEBFCDBF11E0A0E0B1E097
:1001F000E0EDF4E102C005900D92A233B107D9F70A
:1002000022E0A2E3B1E001C01D92A238B207E1F7FB
:1002100028D20C94660AF4CEFC01E058FF4FA0816E
:10022000B1816C93A081B1819D012F5F3F4F3183DC
:1002300020832E173F0721F412969C938E931197DB
:100240002FB7F894FC01EC57FF4F80818F5F8083BC
:100250002FBF0895DC01AE57BF4FED91FC91119770
:1002600041911196FC93EE939C0120583F4FE21769
:10027000F30711F48D939C932FB7F894FC01EC577E
:10028000FF4F9081915090832FBF842F0895CF937B
:10029000DF9320915701FC01680F3081932F9F70ED
:1002A000923030F4862F8E1B853008F13496F5CFCE
:1002B000EF01219681E03B7044EF490F5991A22F45
:1002C000B0E0AA5CBE4F5C932F5F2F71813029F4A0
:1002D000953041F39F3039F4E5CF823021F432304C
:1002E00009F34230F8F28F5F843041F7DBCF20937F
:1002F0005701DF91CF91089590913501992309F12C
:10030000E091340191E09E0F90933401873F69F4AE
:10031000AE2FB0E0A85ABE4F8C93EC5FE09358012B
:1003200010923501109233015DC0F0E0E85AFE4FA3
:1003300080839430A1F59093580181E0809334013B
:100340000895883F50F09FE09093580180935901A1
:1003500010925A0110925B0145C087FF0DC0803F8B
:1003600049F491E0909335018093590182E08093A4
:10037000340115C01092330190913301911111C0D5
:10038000282F22952F70922F9770990F9E5F909330
:10039000330120936001809361011092630180E03A
:1003A0000895A92FB0E0AF5DBE4F2C91E92FE17009
:1003B000F0E0E05AFE4F8283822F8F7080933301EA
:1003C00027FFEDCF8091600190916101A0916201C2
:1003D000B09163018093580190935901A0935A0101
:1003E000B0935B0181E00895CF93DF9300D000D0FC
:1003F000CDB7DEB7789413E088E2F82E02E0809162
:10040000C80087FF0BC0E09068018091CE0074DFC8
:100410008E29809368015D9810936901809168012D
:10042000882351F068E571E081E091E0D4D781E064
:1004300091E0F1D710926801BE016F5F7F4F81E0BC
:1004400091E0FED7882341F064E0CE0101961FDFE2
:100450005C9810936A01F0CF8091C80085FF15C0A9
:10046000E0915601809157018E1779F081E08E0F4F
:1004700080935601F0E0EA5CFE4F80818093CE00CD
:10048000809156018F7180935601A89B19C0A89A3C
:1004900080916901882341F08091690181508093A6
:1004A0006901811101C05D9A80916A01882341F040
:1004B00080916A01815080936A01811101C05C9A28
:1004C00003D680913201813009F099CF80910001EB
:1004D000815080930001811192CFF092000185B18B
:1004E000802785B98CCF2FB7F89481EF91E0909356
:1004F00072028093710290937402809373022FBFF3
:100500002FB7F8948CE691E09093ED018093EC0185
:100510009093EF018093EE012FBF7894D3E09FB7C3
:10052000F894809175029FBF803849F08AE091E08D
:10053000EED697FD04C0682F81EF91E06DDE8FB796
:10054000F894C091F0018FBFA89902C0C13658F14C
:10055000A89A8091F001882319F05D98D0936901E1
:10056000CC2349F08CE691E075DE682F8AE091E0BB
:1005700073D6C150F5CF80916901882341F08091F5
:100580006901815080936901811101C05D9A809158
:100590006A01882341F080916A01815080936A0149
:1005A000811101C05C9A9FB7F894809175029FBF3A
:1005B000882361F081EF91E04DDE9091C80095FFB6
:1005C000FCCF8093CE005C98D0936A018AE091E0E2
:1005D00090D67AD5A4CF84B7877F84BF88E10FB641
:1005E000F89480936000109260000FBE82E084B99E
:1005F0008CE085B91A9913C01092200187E690E02B
:100600009093CD008093CC0086E08093CA00109236
:10061000C80088E18093C900539A5A9A12C081E0B9
:10062000809320011B9905C0809332011092CC0069
:1006300003C08FE18093CC0088E18093C9008EE0F5
:1006400085B984E085BD19D38AB180638AB98BB13D
:1006500080638BB980912001811102C05F9A579A03
:100660000895B9DF80912001813009F4BDDE3BDFC0
:100670000895089580912001813019F481E091E07E
:1006800071C68AE091E09BC580912001811103C071
:100690008AE091E02BC508951F93CF93DF93EC017F
:1006A0008C89813031F0823011F010E003C010E20B
:1006B00001C010E38B89823009F418608D8987307E
:1006C00031F0883031F0863029F4126003C01460B4
:1006D00001C016601092C9001092C8001092CA00A2
:1006E0002F85388949895A89211581EE38074105B6
:1006F000510571F0CA01B90196958795779567956F
:1007000060587B47814E9F4FB9D62150310902C0B6
:1007100020E130E03093CD002093CC001093CA004C
:100720008F859889A989BA898115914EA105B1054E
:1007300011F480E001C082E08093C80088E98093D2
:10074000C900DF91CF911F9108951F920F920FB6AC
:100750000F9211242F933F934F935F936F937F9347
:100760008F939F93AF93BF93EF93FF93809120015B
:10077000811108C06091CE008EB3843019F48CE6EC
:1007800091E04ADDFF91EF91BF91AF919F918F91E1
:100790007F916F915F914F913F912F910F900FBE7D
:1007A0000F901F901895FC01858580FF02C05F980F
:1007B00008955F9A0895292F33272230310581F05B
:1007C00023303105B1F02130310509F03FC080916F
:1007D0002001813089F582E190E029EB31E03AC0D7
:1007E00080912001813069F585E690E026E131E0D5
:1007F00031C099278130910541F08230910579F01F
:10080000892B21F5E2E1F1E013C0809120018130D4
:1008100019F4E8EBF0E00CC0EEEDF0E009C08091D7
:100820002001813019F4E8E8F0E002C0EEE9F0E0E0
:10083000849190E09F010EC082E190E02BEC31E0CA
:1008400009C08EE390E02BE731E004C080E090E047
:1008500020E030E0FA0131832083089528E030E081
:1008600040E02817390720F44F5F220F331FF9CFDC
:10087000842F8295807F08958093E900EBEEF0E06D
:10088000808181608083EDEEF0E010826093EC0067
:1008900040838091EE00881F8827881F089510925A
:1008A000F40080E08093E9001092F0001092E800DC
:1008B0001092ED009091EB009E7F9093EB008F5F84
:1008C000853081F7089580917A0287FD05C0809177
:1008D000E80080FF0DC010C08091E80082FD04C0D8
:1008E0008EB38111F9CF08958091E8008B7707C00E
:1008F0008EB38111ECCF08958091E8008E778093BC
:10090000E800089585E69091EC0090FF05C0909175
:10091000E80090FF05C01BC09091E80092FD17C051
:100920009EB39923B1F09EB39530A9F09091EB005E
:1009300095FD13C09091E10092FFE5CF9091E10009
:100940009B7F9093E1008150F1F684E0089580E070
:10095000089582E0089583E0089581E00895EF927C
:10096000FF920F931F93CF93DF93EC018B017A01DA
:10097000C9DF81111DC001151105C9F08091E80082
:1009800085FD0EC08091E8008E778093E800E11429
:10099000F10471F3F7010995813051F785E008C042
:1009A00088818093F100015011092196E4CF80E005
:1009B000DF91CF911F910F91FF90EF900895EF92EB
:1009C000FF920F931F93CF93DF93EC018B017A017A
:1009D00099DF81111DC001151105C9F08091E80052
:1009E00085FD0EC08091E8008B778093E800E114CC
:1009F000F10471F3F7010995813051F785E008C0E2
:100A00008091F1008883015011092196E4CF80E0A4
:100A1000DF91CF911F910F91FF90EF90089520915A
:100A20008002309181022617370748F06115710561
:100A300039F42091E8002E772093E80001C0B90135
:100A400030E06115710591F12091E80023FD38C077
:100A50002091E80022FF06C08091E80082FF29C0B3
:100A600080E008952EB3222369F12EB3253061F181
:100A70002091E80020FFE5CF2091F200FC01CF019A
:100A80006115710549F0283038F481918093F100A7
:100A9000615071092F5FF3CF31E0283009F030E069
:100AA0002091E8002E772093E800CBCF3111CCCFF6
:100AB000D3CF8EB3882331F08EB3853069F604C06E
:100AC00081E0089582E0089583E0089520918002F6
:100AD000309181022617370748F06115710539F406
:100AE0002091E8002E772093E80001C0B90130E0A2
:100AF0006115710599F12091E80023FD39C020911D
:100B0000E80022FF06C08091E80082FF2AC080E052
:100B100008952EB3222371F12EB3253069F120916F
:100B2000E80020FFE5CF2091F200FC01CF01611524
:100B3000710551F0283040F484918093F1006150A8
:100B400071092F5F3196F2CF31E0283009F030E0A3
:100B50002091E8002E772093E800CACF3111CBCF47
:100B6000D2CF8EB3882331F08EB3853061F604C0C6
:100B700081E0089582E0089583E00895611571058C
:100B800029F42091E8002B772093E8006115710586
:100B900049F12091E80023FD2AC02EB3222359F108
:100BA0002EB3253051F12091E80022FFF2CFFC0155
:100BB0008091F200882371F09F012F5F3F4FC901A0
:100BC0004091F10040836150710961157105C9F2CE
:100BD000F901EECFCF01D5CF8EB3882361F08EB36C
:100BE000853059F08091E80080FFF6CF02C081E0A7
:100BF000089580E0089582E0089583E0089542D04A
:100C000044D01EBA109278021092770210927602A7
:100C100084E089BD89B5826089BD09B400FEFDCF3D
:100C20008091D800982F9F779093D8008068809308
:100C3000D800809163008E7F809363008091D800FC
:100C40008F7D8093D8008091E0008E7F8093E000BC
:100C50008091E1008E7F8093E1008091E2008160CD
:100C60008093E2008091E100877F8093E100809192
:100C7000E20088608093E2000895C1DF81E0809304
:100C8000790208951092E20008951092E10008950B
:100C90001F920F920FB60F9211242F933F934F93F1
:100CA0005F936F937F938F939F93AF93BF93EF93D4
:100CB000FF938091E10080FF1BC08091E20080FFE4
:100CC00017C08091E1008E7F8093E1008091E20067
:100CD0008E7F8093E2008091E20080618093E20049
:100CE0008091D80080628093D80019BC1EBAC1DC04
:100CF0008091E10084FF29C08091E20084FF25C03B
:100D000084E089BD89B5826089BD09B400FEFDCF4C
:100D10008091D8008F7D8093D8008091E1008F7EF4
:100D20008093E1008091E2008F7E8093E2008091C9
:100D3000E20081608093E20080917802882311F0C4
:100D400084E001C081E08EBB93DC8091E10083FFF1
:100D500027C08091E20083FF23C08091E100877F5C
:100D60008093E10082E08EBB109278028091E100D6
:100D70008E7F8093E1008091E2008E7F8093E2007D
:100D80008091E20080618093E20089DD42E060E0D2
:100D900080E072DD8091F00088608093F00093D154
:100DA0008091E10082FF0AC08091E20082FF06C0CC
:100DB0008091E1008B7F8093E10085D1FF91EF91DD
:100DC000BF91AF919F918F917F916F915F914F9163
:100DD0003F912F910F900FBE0F901F9018951F926B
:100DE0000F920FB60F9211242F933F934F935F935F
:100DF0006F937F938F939F93AF93BF93CF93EF9313
:100E0000FF93E9EEF0E0C081C7701082E0EFF0E000
:100E10008081877F808378941CD0F894E9EEF0E09D
:100E20001082A0EFB0E08C9188608C93C083FF911A
:100E3000EF91CF91BF91AF919F918F917F916F91E2
:100E40005F914F913F912F910F900FBE0F901F9088
:100E500018951F93CF93DF93CDB7DEB7AA970FB640
:100E6000F894DEBF0FBECDBFEAE7F2E08091F1005B
:100E7000819322E0E238F207C9F720917A0230919B
:100E80007B02832F90E08A30910508F010C1FC01AD
:100E9000E65CFF4F15C3203881F0223809F007C106
:100EA00080917E0287708093E9008091EB0085FB42
:100EB000882780F91092E90006C08091760290910F
:100EC0007702911182609091E800977F9093E800FB
:100ED0008093F1001092F100BDC0822F8D7F09F048
:100EE000E6C0222319F0223061F0D2C080917C024A
:100EF000813009F0CDC0333009F080E08093770273
:100F000028C080917C02811124C020917E0227702C
:100F100009F4BEC02093E9008091EB0080FFB8C0C7
:100F20008091EB00333011F4806211C080618093B6
:100F3000EB0081E090E0022E01C0880F0A94EAF7EE
:100F40008093EA001092EA008091EB008860809321
:100F5000EB001092E9008091E800877F7EC02111AC
:100F6000A6C010917C028091E800877F8093E80002
:100F7000AADC8091E80080FD04C08EB38111F9CF16
:100F800087C0812F8F7711F093E001C092E09EBB64
:100F900080688093E3007CC02058223008F087C02E
:100FA00080917C0290917D028C3D23E0920781F537
:100FB00083E08A838AE289834FB7F894DE0113962F
:100FC00020E03EE051E2E32FF0E050935700E4913F
:100FD00020FF03C0E295EF703F5FEF7090E39E0F3C
:100FE0009A3310F0E95C01C0E92F8E2F90E08D93C9
:100FF0009D932F5F243139F74FBF8091E800877FA1
:101000008093E8006AE270E0CE01019608DD11C02D
:10101000AE014F5F5F4F60917E02CDDB0097C1F163
:101020002091E800277F2093E800BC0189819A8104
:101030004DDD8091E8008B778093E80029C020384F
:10104000B1F58091E800877F8093E8008091780275
:101050008093F1008091E8008E778093E80033DC84
:1010600017C0211124C090917C02923088F48091A5
:10107000E800877F8093E8009093780224DC8091D9
:101080007802882311F084E001C083E08EBBF2DA9D
:101090008091E80083FF0DC08091EB008062809317
:1010A000EB008091E800877F8093E80002C0ECDAD3
:1010B000EFCFAA960FB6F894DEBF0FBECDBFDF917B
:1010C000CF911F9108950895CF938EB3882359F03F
:1010D000C091E900C7701092E9008091E80083FD9B
:1010E000B8DEC093E900CF9108950895CF93DF93C0
:1010F000EC018091E80083FF5FC0888190E020913F
:101100007E0230917F022817390709F055C080917F
:101110007B02813249F018F48032C9F04DC082322E
:1011200061F18332C9F148C080917A02813A09F0B5
:1011300043C08091E800877F8093E80067E070E01B
:10114000CE010F966CDC8091E8008B7713C0809104
:101150007A02813289F58091E800877F8093E800E8
:1011600067E070E0CE010F9609DDCE0195DA80913F
:10117000E8008E778093E8001FC080917A02813268
:10118000D9F48091E800877F8093E80080917C0209
:101190008D87CE0108DB0DC080917A02813261F427
:1011A0008091E800877F8093E80060917C02CE0107
:1011B0009CDFDF91CF9187CBDF91CF9108950F9383
:1011C0001F93CF93DF93EC01FC013D9689E0DF0193
:1011D0001D928A95E9F72A813B818C81882311F041
:1011E00014E001C010E00981C90138DB412F482B10
:1011F000426061E8802F40DB882341F12E813F81EE
:101200008885882311F014E001C010E00D81C90128
:1012100025DB412F482B426060E8802F2DDB88239F
:10122000A9F02A853B858C85882311F014E001C044
:1012300010E0C985C90112DB412F482B426061ECE7
:101240008C2FDF91CF911F910F9116CB80E0DF9112
:10125000CF911F910F910895CF93C62F2EB32430B5
:10126000E9F4FC014785508961897289452B462B39
:10127000472BA1F081818093E9008091E80085FFF0
:1012800004C0C093F10080E00AC08091E8008E772E
:101290008093E80037DB8823A1F301C082E0CF917F
:1012A00008952EB3243019F5FC01478550896189D2
:1012B0007289452B462B472BD1F081818093E90021
:1012C0008091F200882389F09091E8008091E800F5
:1012D0008E778093E80095FD08C014DB811108C06B
:1012E0008091E8008E778093E80080E0089582E0A6
:1012F00008952EB3243051F4FC014785508961894B
:101300007289452B462B472B09F0CBCF08952EB37E
:10131000243019F08FEF9FEF0895FC014785508925
:1013200061897289452B462B472BA1F385818093D8
:10133000E9008091E80082FFEDCF8091F2008823E0
:1013400021F02091F10030E002C02FEF3FEF8091BB
:10135000F200811105C08091E8008B778093E8004E
:10136000C90108950F931F93CF93DF93EC01198167
:10137000111105C01D81111115C081E027C02A81FE
:101380003B818C81882311F004E001C000E0C90199
:1013900065DA402F482B426061E8812F6DDA8111B8
:1013A000E9CF14C02E813F818885882311F0C4E0E5
:1013B00001C0C0E0C90152DA4C2F482B426060E8FE
:1013C000812FDF91CF911F910F9156CADF91CF915D
:1013D0001F910F910895FC01CB012EB32430C9F465
:1013E00021812093E9002091E80025FF10C040E012
:1013F00050E064E070E0B3DA81110CC08091E80045
:1014000085FD05C08091E8008E778093E80080E03C
:10141000089582E008952EB3243071F4FC01818197
:101420008093E9008091F200882341F08091E800E8
:101430008E778093E80066CA82E0089580E0089580
:10144000FC01CB012EB3243011F080E008952581FA
:101450002093E9002091E80025FFF7CF40E050E01D
:1014600064E070E0ACDA8091E80085FD05C0809111
:10147000E8008B778093E80081E00895A1E21A2EBE
:10148000AA1BBB1BFD010DC0AA1FBB1FEE1FFF1F28
:10149000A217B307E407F50720F0A21BB30BE40B78
:1014A000F50B661F771F881F991F1A9469F76095BF
:1014B0007095809590959B01AC01BD01CF01089579
:1014C000EE0FFF1F0590F491E02D0994F894FFCFE3
:1014D0002801024000000140000000034000000419
:1014E00040000002080000000000000000000000B2
:1014F00001000003820584078609888A008C000F9A
:021500008E005B
:00000001FF
